:020000040800F2
:10000000980A0020C1010008C9010008CB010008BE
:10001000CD010008CF010008D10100080000000058
:100020000000000000000000000000000D120008A9
:10003000D501000800000000091200080F12000896
:10004000DB010008DB010008DB010008DB01000820
:10005000DB0100080B120008DB010008DB010008CF
:10006000DB010008DB010008DB010008DB01000800
:10007000DB010008DB010008DB010008DB010008F0
:10008000DB010008DB010008DB010008DB010008E0
:10009000DB010008DB010008DB010008DB010008D0
:1000A000DB010008DB010008DB010008DB010008C0
:1000B000DB010008DB010008DB010008DB010008B0
:1000C000DB010008DB010008DB010008DB010008A0
:1000D000DB010008DB010008DB0100084117000814
:1000E000DB010008DB010008DB010008DB01000880
:1000F000DB010008DB010008DB010008DB01000870
:10010000DB010008DB010008DB010008DB0100085F
:10011000DB010008DB010008DB010008DB0100084F
:10012000DB010008DB010008DB010008DB0100083F
:10013000DB010008DB010008DB010008DB0100082F
:10014000DB010008DB010008DB010008DB0100081F
:10015000DB010008DB010008DB0100084D17000887
:10016000DB010008DB010008DB010008DB010008FF
:10017000DB010008DB010008DB01000800000000D3
:10018000DB010008DB010008DB010008DB010008DF
:10019000DB010008DB010008DB010008DB010008CF
:1001A000DB010008DB010008DB010008DFF80CD0F0
:1001B00000F086F800480047C9170008980A002098
:1001C0000648804706480047FEE7FEE7FEE7FEE7F1
:1001D000FEE7FEE7FEE7FEE7FEE7FEE7C1120008E6
:1001E000AD0100082DE9F05F0546002092469B46D0
:1001F00088460646814640241BE02846414647463D
:10020000224600F04CF853465A46C01A914110D38A
:1002100011461846224600F033F82D1A67EB010804
:100220004F4622460120002100F02AF817EB000972
:100230004E41201EA4F10104DFDC484631462A4627
:100240004346BDE8F09F30B505460020034600E078
:100250005B1C934205D2EC5CC85C201A01D1002CD7
:10026000F6D130BD10B54843044601F00FFB00281D
:1002700005D00021002C02D0641E0155FAE710BD04
:10028000202A04DB203A00FA02F100207047914056
:10029000C2F1200320FA03F3194390407047202A4B
:1002A00004DB203A21FA02F00021704721FA02F320
:1002B000D040C2F120029140084319467047000027
:1002C000064C074D06E0E06840F0010394E80700A3
:1002D00098471034AC42F6D3FFF76CFF10190008B2
:1002E0003019000890F83510022903D080214165AB
:1002F00001207047052180F835100068016821F061
:10030000010101600020704770B5044600F0FEF85E
:100310000546601C02D004480078044400F0F6F85A
:10032000401BA042FAD370BD140000202DE9F84F05
:10033000DFF890B100224FF001084FF0030A4FF0B0
:100340000F090BF1040E00BF0B6808FA02F42340FA
:10035000A3426ED14D68022D01D0122D0ED1D508C9
:1003600000EB850CDCF820505607F70E09FA07F66B
:10037000B5430E69BE402E43CCF820600668550098
:100380000F790AFA05FC07F0030726EA0C06AF40CE
:10039000374307604E68012E05D0022E03D0112E80
:1003A00001D0122E0ED18768CE6827EA0C07AE4026
:1003B0003E4386604668A6430C79C4F3001494401B
:1003C00034434460C4688E6824EA0C04AE4026437B
:1003D000C6604C68E4006FD53B4C256845F4804509
:1003E0002560246822F0030504F480440094374C0F
:1003F0002E19D6F8084895072F0F09FA07F5AC43D0
:10040000334DA84201D100252EE0324DA84201D142
:10041000012529E0304DA84201D1022524E02F4DCD
:10042000A84201D103251FE02D4DA84202D1042589
:100430001AE041E02B4DA84201D1052514E02A4DD8
:10044000A84201D106250FE0284DA84201D1072579
:100450000AE0274DA84201D1082505E0254DA84214
:1004600001D1092500E00A25BD402543C6F80858FA
:10047000DBF800405D464E689C43F60300D51C4304
:100480002C60DEF8004075464E689C43B60300D5EC
:100490001C432C600B4D08352C684E689C43F602BB
:1004A00000D51C432C60074D0C352C684E689C43CE
:1004B000B60200D51C432C60521C102AFFF444AF36
:1004C000BDE8F88F003C0140443802400030014054
:1004D000000002400004024000080240000C0240FC
:1004E000001002400014024000180240001C0240AC
:1004F000002002400024024042694A4042617047A5
:100500000AB1816170470904FBE700000148806877
:1005100070470000140000200248816802781144EE
:1005200081607047140000200B4810B5016841F449
:1005300000710160016841F480610160016841F46B
:1005400080710160032000F09FF8002000F006F8A1
:1005500000F024F8002010BD003C024070B50D4DA5
:1005600004464FF47A712878B1FBF0F00A49096823
:10057000B1FBF0F000F023FB48B9102C07D20022A9
:100580002146501E00F060F800206C6070BD012014
:1005900070BD00001400002020000020234808B592
:1005A000016841F480410160006800F480400090DF
:1005B0001E48001F016841F080510160006800F092
:1005C00080500090032000F05FF8002211466FF089
:1005D0000B0000F039F8002211466FF00A0000F01D
:1005E00033F8002211466FF0090000F02DF80022C8
:1005F0001146501F00F028F800221146101F00F08D
:1006000023F800221146901E00F01EF80022114629
:10061000501E00F019F800221146052000F014F8D1
:10062000BDE80840052000F003B80000443802404F
:1006300000F01F02012191404009800000F1E020FC
:10064000C0F8001170470000F0B40E4B1B680C4658
:10065000C3F30223C3F10705042D00D90425191D96
:10066000072901D2002300E0DB1E012606FA05F16E
:10067000491E214099409E40761E16403143F0BCF1
:1006800000F0B2BD0CED00E0064900F0070208687A
:100690004FF6FF03184040EA0220034A1043086067
:1006A000704700000CED00E00000FA052DE9F0476E
:1006B0000E46050065D0DFF81481D8F80000F7B2C7
:1006C00000F00F00B04207D288F80070D8F80000A0
:1006D00000F00F00B04254D128683D4C810712D57C
:1006E000400703D5206840F4E050206028780007D8
:1006F00003D5206840F4604020602068A96820F09D
:10070000F000084320602878C0072DD03049686881
:100710000839012812D0022813D0032811D0096803
:10072000890700292DDA216821F0030101432160A6
:10073000FFF7ECFE814641F2883A0EE00968890332
:10074000EFE709688901ECE7FFF7E0FEA0EB09019C
:10075000514502D90320BDE8F0872068696800F0A0
:100760000C00B0EB810FEFD1D8F80010404601F03B
:100770000F01B14207D90770006800F00F00B042C6
:1007800001D00120E7E72878400705D52068E9680F
:1007900020F4E050084320602878000706D5206840
:1007A000296920F4604040EAC100206000F03CF874
:1007B0002168084AC1F30311515CC840064908602A
:1007C0000020FFF7CBFE0020C5E70000003C024000
:1007D00008380240F818000820000020014800688E
:1007E000704700002000002004480549006809689F
:1007F000044AC1F38221515CC840704720000020A8
:1008000008380240081900080448054900680968CA
:10081000044AC1F34231515CC840704720000020B7
:100820000838024008190008154810B5006810F093
:100830000C02144813D04110042A0FD0082A0ED1FC
:100840000F4C241F2268236802F03F025B0207D589
:100850002068C0F38810A0FB010106E0084610BD27
:100860002168C1F38811A1FB00010023FFF7BAFC46
:100870002168C1F30141491C4900B0FBF1F010BDF2
:10088000083802400024F4002DE9F84F050076D026
:100890002878DFF8F8B2BE4CC00749D0DBF800106A
:1008A0005846C1F38101012908D00068C0F38100D6
:1008B00002280AD1201D0068400206D52068800366
:1008C00036D568680028E2D032E06868B0F5803F2D
:1008D00010D0B0F5A02F206810D020F48030206018
:1008E000206820F4802020606868A0B1FFF70EFE29
:1008F00006460CE0206840F48030F4E740F48020A5
:100900002060F7E7FFF702FE801B642873D8206899
:100910008003F7D50CE0FFF7F9FD064605E000BFC0
:10092000FFF7F4FD801B6428F0D820688003F7D41B
:100930002878DFF8608280074FF000093ED5DBF8A9
:100940000010584611F00C0F09D00068C0F3810068
:1009500002280BD18D48001F0068400206D4206891
:10096000800715D5E868012809D111E0E868B8B119
:100970000120C8F80000FFF7C9FD064605E002E1C6
:10098000FFF7C4FD801B0228C0D820688007F7D578
:100990002068296920F0F80040EAC10020600DE0DD
:1009A000C8F80090FFF7B2FD064604E0FFF7AEFD81
:1009B000801B02281FD820688007F7D428780007FA
:1009C00022D5724E744869696C3671B1012101609B
:1009D000FFF79CFD074604E0FFF798FDC01B0228C7
:1009E00009D830688007F7D50EE0C0F80090FFF70F
:1009F0008DFD074605E083E0FFF788FDC01B022858
:100A00007ED830688007F7D42878400768D5DFF8AB
:100A10007CA100270AF1380ADAF80000C0000BD4E4
:100A2000DAF8001041F08051CAF80010DAF800003E
:100A3000012700F080500090584E3068C00510D457
:100A4000306840F480703060FFF760FD009005E092
:100A5000FFF75CFD0099401A022851D83068C005A4
:100A6000F6D54A4EA868683601280FD005283068A8
:100A700010D020F001003060306820F004003060B9
:100A8000A868B8B1FFF742FD00900FE0306840F071
:100A90000100F4E740F004003060F7E7FFF736FDAF
:100AA0000099411A41F28830814264D83068800749
:100AB000F4D50EE0FFF72AFD009007E0FFF726FDD2
:100AC0000099411A41F28830814254D83068800739
:100AD000F4D42FB1DAF8001021F08051CAF80010D8
:100AE000A869C0B3DBF80010C1F3810102294AD024
:100AF0000228484607D0C8F86000FFF707FD00E06D
:100B000039E005463AE04746C8F86000FFF7FEFCCA
:100B1000064604E0FFF7FAFC801B02282BD8206869
:100B20008001F7D4D5E907010843A96A1C4A49089E
:100B300002EB01416A6A41EA8211084395F82C10E0
:100B400040EA01611148001F016001203866FFF78B
:100B5000DDFC054605E014E0FFF7D8FC401B022849
:100B600009D820688001F7D50BE000BFFFF7CEFC65
:100B7000401B022802D90320BDE8F88F20688001BD
:100B8000F4D40020F8E70120F6E70000083802401E
:100B90000038024000004742800E4742007000408B
:100BA0000000FFFF4FF0E0210428086903D020F087
:100BB00004000861704740F00400FAE7704710B580
:100BC000401EB0F1807F01D3012010BD4FF0E02422
:100BD00060610F21601700F007FB0020A061072073
:100BE0002061002010BD10B5FFF7E8FF10BD704771
:100BF00070B5026804461068D168536910F00F0F91
:100C000050D003F0010501F4907635435DD0C20762
:100C100005D0CA0503D5E26B42F00102E263420748
:100C200005D5DA0703D0E26B42F00202E2638207E5
:100C300005D5DA0703D0E26B42F00402E263020753
:100C400005D5DA0703D0E26B42F00802E263E26BFB
:100C5000002A33D0800604D5880602D5204600F04D
:100C60006FFB20684069E16BC0F38010090700D476
:100C700028B3204600F056FB2068416949061AD582
:100C8000416921F040014161606BA0B11B490165E0
:100C9000606BFFF727FB002810D0606B016DBDE88B
:100CA00070400847830610D58B060ED52046BDE858
:100CB000704000F045BB2046FFF799FF70BD20460D
:100CC000FFF795FF0020E06370BD030606D50B0615
:100CD00004D52046BDE8704000F0CEBC4006F3D5F8
:100CE0004806F1D5D168204621F04001D16020218D
:100CF00084F8391000F0FBF970BD000015130008EE
:100D000070B5040004D094F83900002510B106E055
:100D1000012070BD84F83850204600F023F82420CC
:100D200084F839002068C16821F40051C160204670
:100D300000F04CFB2068016921F4904101612068BA
:100D4000416921F02A0141612068C16841F40051E4
:100D5000C160E563202084F8390084F83A0000205F
:100D600070BD000010B500681F4C02210122032352
:100D700086B0A04218D11D48046844F48024046061
:100D8000006800F48020059018028DE80F0007200D
:100D9000049069461648FFF7C9FA00221146272039
:100DA000FFF752FC27201BE0124CA0421AD10F483B
:100DB000001D046844F020040460006800F0200076
:100DC0000590C0208DE80F000820049069460A486D
:100DD000FFF7ACFA002211464720FFF735FC472009
:100DE000FFF726FC06B010BD004800404038024026
:100DF000000C024000140140000802402DE9F843B5
:100E0000044690F83A00994616460D4620284FD1E0
:100E100095B18EB194F83800012849D0012084F8AA
:100E200038000027E763222084F83A00FFF76EFBC2
:100E3000A6858046E68531E00120BDE8F883E08D97
:100E4000401EE085A0684346B0F5805F4FF0000289
:100E50004FF020012046CDF8009004D000F03DFC7A
:100E600098B10320E9E700F038FC0028F9D12069A7
:100E700000282068406803D0C1B225F8011B0DE0AE
:100E8000C0F3080125F8021B08E02069002820684B
:100E9000406801D000F07F0005F8010BE08D0028CC
:100EA000CDD1202084F83A0084F838700020C4E7BF
:100EB0000220C2E790F83A30202B1DD1D1B1CAB13F
:100EC00090F83830012B17D081628285C2850021CD
:100ED000C163222280F83A2080F8381001684A69FC
:100EE00042F001024A610068C16841F49071C1603A
:100EF0000020704701207047022070472DE9F04321
:100F0000074600684249DFF80C818BB088424AD11D
:100F10004FF48049012249464046FFF7F1FA0E227C
:100F20003D493E48FFF78FF950B13C490024C823A2
:100F30004FF4FA72A1F1800000F07CF8374D0EE01A
:100F40003648C82311223449803800F073F8002253
:100F500049464046FFF7D4FA1AE0641CE4B2285D23
:100F60000028FAD10121601EFFF77CF90646002017
:100F700002E0295C3154401CA042FADB2748C82318
:100F800000223146803800F055F8304600F0F4FB7E
:100F9000002249464046FFF7B3FA20490E22A1F14C
:100FA0004000FFF787FF1E49386888422CD11DA0FA
:100FB0000422006808901CA11D48FFF744F900288E
:100FC00022D116480A23042208A9803800F032F8FA
:100FD000012280214046FFF793FA0424144900209F
:100FE0006D460A5C2A54401C0428FADB0B484FF477
:100FF000FA63022209A98038FFF700FF9DF8240058
:101000002855641CE4B2FBE70BB0BDE8F083000098
:10101000001401400004024000000020AC00002049
:10102000004800406869686954544D3A0000000067
:10103000A00200202DE9F843044690F839001F462D
:1010400016460D46202850D1A5B19EB194F838001F
:1010500001284AD0012084F838004FF00008C4F875
:101060003C80212084F83900FFF750FAA68481469D
:10107000E68426E00120BDE8F883E08C401EE08491
:10108000A0684B46B0F5805F4FF000024FF0800142
:101090002046009703D000F020FBE8B90DE000F0F7
:1010A0001CFBC8B928882168C0F308004860206983
:1010B00008B16D1C05E0AD1C03E0216815F8010BBB
:1010C0004860E08C0028D8D14B46002240212046C1
:1010D000009700F002FB08B10320CCE7202084F841
:1010E000390084F838800020C5E70220C3E7704744
:1010F0002DE9F043374887B00024016841F08001B2
:101100000160016801F080010591016841F0200152
:101110000160016801F020010591016841F0400182
:101120000160016801F040010591016841F0020190
:101130000160016801F002010591016841F00801B8
:101140000160016801F008010591016841F00401A6
:1011500001600068204F00F004004FF440550590F6
:10116000002229463846FFF7CBF9DFF870804FF4AC
:101170008146002231464046FFF7C2F9DFF8609011
:10118000002280214846FFF7BBF900950125CDE9F3
:101190000154694638460394FFF7C8F80320CDE9A7
:1011A000000469460F480294FFF7C0F80096CDE9A5
:1011B0000154694640460394FFF7B8F88020009038
:1011C000CDE90154694648460394FFF7AFF807B0EC
:1011D000BDE8F083303802400014024000040240B1
:1011E000000C0240001802400907090E002806DA28
:1011F00000F00F0000F1E02080F8141D704700F1AE
:10120000E02080F80014704770477047704710B5B1
:10121000FFF782F9BDE81040FFF7E5BC30B526487E
:1012200093B00024016841F080510160006800F033
:10123000805011902148016821F4404141F48041DF
:1012400001600068022500F44040119001200390E5
:1012500010200490009506950820CDE90740A820AD
:10126000099004200A9007200B906846FFF70CFBBA
:1012700000B1FEE70F20CDE90C054FF4A050CDE9F9
:101280000E404FF48050109002210CA8FFF70EFA88
:1012900000B1FEE7FFF7A2FA4FF47A71B0FBF1F06C
:1012A000FFF78DFC0420FFF77DFC00221146501E45
:1012B000FFF7CAF913B030BD40380240007000405B
:1012C0001048016841F4700101600F48016841F065
:1012D000010101600C4A00210832116002680B4BC9
:1012E0001A400260031D0A4A1A60026822F4802232
:1012F000026005480C3001600249580680390860D8
:101300007047000088ED00E000380240FFFFF6FE65
:101310001030002410B5806B0021C185C184FFF717
:1013200066FC10BD0168CA6822F49072CA60016848
:101330004A6922F001024A61202180F83A10704780
:1013400010B590F83A10222901D0022010BD816812
:10135000B1F5805F11D00169002901681FD049688B
:1013600001F07F03816A4A1C82620B70C18D491EA5
:101370000904090CC18518D026E00269816A002A97
:101380000268526805D0D2B20A80816A491C816223
:10139000ECE7C2F308020A80816A891CF7E74A6811
:1013A000816A4B1C83620A70E0E70168CA6822F414
:1013B0009072CA6001684A6922F001024A612021E4
:1013C00080F83A10FFF79AFD002010BD2DE9F0419A
:1013D00004460068016921F44052E168114301614B
:1013E0002168C86849F20C6290432369A268E569E4
:1013F0001A4363692B431A430243CA602168486950
:1014000020F44072A06910434861E1696425B1F598
:10141000004F9748974A21684FF032083FD09142D9
:1014200001D081427CD1FFF7EFF900EBC00101EB65
:10143000001061688900B0FBF1F6FFF7E5F900EBF9
:10144000C00101EB001061688900B0FBF1F0B0FB56
:10145000F5F06FF01801484306EB800108EB01102E
:10146000B0FBF5F000F0F006FFF7CEF900EBC0019D
:1014700001EB001061688900B0FBF1F0B0FBF5F002
:1014800006EB0016FFF7C0F900EBC00101EB0010FE
:1014900061688900B0FBF1F7FFF7B6F9D2E091423D
:1014A00001D081423DD1FFF7AFF900EBC00101EB64
:1014B000001061684900B0FBF1F0B0FBF5F00601E7
:1014C000FFF7A2F900EBC00101EB001061684900D1
:1014D000B0FBF1F7FFF798F900EBC00101EB00104A
:1014E00061684900B0FBF1F0B0FBF5F06FF0180156
:1014F000484307EB800108EBC100B0FBF5F000F0BA
:10150000F80006EB4006FFF77FF900EBC00101EBA6
:10151000001061684900B0FBF1F7FFF775F93CE096
:1015200055E0FFF761F900EBC00101EB00106168C5
:101530004900B0FBF1F0B0FBF5F00601FFF754F9FC
:1015400000EBC00101EB001061684900B0FBF1F74E
:10155000FFF74AF900EBC00101EB00106168490098
:10156000B0FBF1F0B0FBF5F06FF01801484307EB6A
:10157000800108EBC100B0FBF5F000F0F80006EBCD
:101580004006FFF731F900EBC00101EB0010616884
:101590004900B0FBF1F7FFF727F900EBC00101EBC1
:1015A000001061684900B0FBF1F0B0FBF5F06FF09E
:1015B0001801484307EB800108EBC100B0FBF5F0D0
:1015C00000F00700216830448860BDE8F081FFF733
:1015D0000BF900EBC00101EB001061688900B0FB62
:1015E000F1F6FFF701F900EBC00101EB00106168B3
:1015F0008900B0FBF1F0B0FBF5F06FF01801484343
:1016000006EB800108EB0110B0FBF5F000F0F006EE
:10161000FFF7EAF800EBC00101EB001061688900F8
:10162000B0FBF1F0B0FBF5F006EB0016FFF7DCF8CD
:1016300000EBC00101EB001061688900B0FBF1F71D
:10164000FFF7D2F800EBC00101EB001061688900E0
:10165000B0FBF1F0B0FBF5F06FF01801484307EB79
:10166000800108EB0110B0FBF5F000F00F00A9E7D6
:10167000001401400010014090F83910212901D0D8
:10168000022070478168B1F5805F016A0BD04A1C67
:101690000262026809785160C18C491E0904090C74
:1016A000C1840ED017E009880268C1F308015160B7
:1016B00001690029016A02D0491C0162ECE7891C1A
:1016C000FBE70168CA6822F08002CA600068C1684E
:1016D00041F04001C160002070472DE9F04198467B
:1016E00017460E460446069D1DE0681C1BD02DB112
:1016F000FEF70CFFA0EB0800A84214D92068C168CF
:1017000021F4D071C1602068416921F0010141617B
:10171000202084F8390084F83A00002084F838004A
:101720000320BDE8F0812068006836EA000004D09C
:101730000020B842D9D00020F3E70120F9E70000EB
:101740000148FFF755BA00002C0000200148FFF7C0
:101750004FBA00006C00002002E008C8121F08C148
:10176000002AFAD170477047002001E001C1121F22
:10177000002AFBD17047000010B5002821D0114B82
:101780000022001F196803E0814203D80A46496815
:101790000029F9D152B11368841A9C4204D100681F
:1017A00018441060104602E0506000E0186039B143
:1017B00002680B1A934203D10B681A44026049680D
:1017C000416010BD24000020FEF7AEFEFFF726FDAD
:1017D000FFF78EFC274826494FF4E13500240160CD
:1017E000C0E901540C26C460C0E904468461C461A8
:1017F000FFF786FA00B1FEE71E481F494038016036
:10180000C0E90154C460C0E904468461C461FFF7C3
:1018100077FA00B1FEE7002280211848FEF770FE3B
:10182000174C00224FF480412046FEF769FE154D0B
:101830000022A1142846FEF763FE01225103284628
:10184000FEF75EFE4FF4FA750A490F22403109484F
:10185000FFF730FB0C490422A1F51D70FFF72AFBAE
:1018600080212046FEF748FE2846FEF74DFDEBE7B7
:10187000001401406C00002000480040000C0240B1
:101880000004024000140240A0020020F0B50B301A
:10189000154D20F007010024144A0FE003688B4225
:1018A0000BD38B4205D95E1A43184768C3E900671A
:1018B00000E04368136002C004E0021D10680028C5
:1018C000ECD12046002802D1286808B10020F0BDE4
:1018D000064A07481060074A121A22F00702C0E9B8
:1018E000002401202860D7E72800002024000020E1
:1018F0009C0400209806002000000000000000006A
:1019000001020304060708090000000001020304A5
:1019100030190008000000202C00000058170008B3
:101920005C1900082C0000206C0A000068170008F1
:1019300054544D3A444953434F4E4E4543540D0A77
:101940000000000001000000100000000000000086
:0C1950000024F400000000000000000073
:04000005080001AD41
:00000001FF
