:020000040800F2
:1000000080080020C1010008C9010008CB010008D8
:10001000CD010008CF010008D10100080000000058
:100020000000000000000000000000007D1100083A
:10003000D501000800000000791100087F110008B8
:10004000DB010008DB010008DB010008DB01000820
:10005000DB0100087B110008DB010008DB01000860
:10006000DB010008DB010008DB010008DB01000800
:10007000DB010008DB010008DB010008DB010008F0
:10008000DB010008DB010008DB010008DB010008E0
:10009000DB010008DB010008DB010008DB010008D0
:1000A000DB010008DB010008DB010008DB010008C0
:1000B000DB010008DB010008DB010008DB010008B0
:1000C000DB010008DB010008DB010008DB010008A0
:1000D000DB010008DB010008B1160008BD160008AE
:1000E000DB010008DB010008DB010008DB01000880
:1000F000DB010008DB010008DB010008DB01000870
:10010000DB010008DB010008DB010008DB0100085F
:10011000DB010008DB010008DB010008DB0100084F
:10012000DB010008DB010008DB010008DB0100083F
:10013000DB010008DB010008DB010008DB0100082F
:10014000DB010008DB010008DB010008DB0100081F
:10015000DB010008DB010008DB010008DB0100080F
:10016000DB010008DB010008DB010008DB010008FF
:10017000DB010008DB010008DB01000800000000D3
:10018000DB010008DB010008DB010008DB010008DF
:10019000DB010008DB010008DB010008DB010008CF
:1001A000DB010008DB010008DB010008DFF80CD0F0
:1001B00000F07EF800480047D518000880080020AD
:1001C0000648804706480047FEE7FEE7FEE7FEE7F1
:1001D000FEE7FEE7FEE7FEE7FEE7FEE73112000876
:1001E000AD0100082DE9F05F0546002092469B46D0
:1001F00088460646814640241BE02846414647463D
:10020000224600F045F853465A46C01A914110D391
:1002100011461846224600F02CF82D1A67EB01080B
:100220004F4622460120002100F023F817EB000979
:100230004E41201EA4F10104DFDC484631462A4627
:100240004346BDE8F09F30B50B4601460020202212
:10025000012409E021FA02F59D4205D303FA02F5D3
:10026000491B04FA02F52844151EA2F10102F1DC33
:1002700030BD202A04DB203A00FA02F1002070474A
:100280009140C2F1200320FA03F3194390407047D4
:10029000202A04DB203A21FA02F00021704721FADB
:1002A00002F3D040C2F12002914008431946704742
:1002B000064C074D06E0E06840F0010394E80700B3
:1002C00098471034AC42F6D3FFF774FFC01900080A
:1002D000E019000890F83510022903D0802141650B
:1002E00001207047052180F835100068016821F071
:1002F000010101600020704770B5044600F0FEF86F
:100300000546601C02D004480078044400F0F6F86A
:10031000401BA042FAD370BD040000202DE9F84F25
:10032000DFF890B100224FF001084FF0030A4FF0C0
:100330000F090BF1040E00BF0B6808FA02F423400A
:10034000A3426ED14D68022D01D0122D0ED1D508D9
:1003500000EB850CDCF820505607F70E09FA07F67B
:10036000B5430E69BE402E43CCF8206006685500A8
:100370000F790AFA05FC07F0030726EA0C06AF40DE
:10038000374307604E68012E05D0022E03D0112E90
:1003900001D0122E0ED18768CE6827EA0C07AE4036
:1003A0003E4386604668A6430C79C4F3001494402B
:1003B00034434460C4688E6824EA0C04AE4026438B
:1003C000C6604C68E4006FD53B4C256845F4804519
:1003D0002560246822F0030504F480440094374C1F
:1003E0002E19D6F8084895072F0F09FA07F5AC43E0
:1003F000334DA84201D100252EE0324DA84201D153
:10040000012529E0304DA84201D1022524E02F4DDD
:10041000A84201D103251FE02D4DA84202D1042599
:100420001AE041E02B4DA84201D1052514E02A4DE8
:10043000A84201D106250FE0284DA84201D1072589
:100440000AE0274DA84201D1082505E0254DA84224
:1004500001D1092500E00A25BD402543C6F808580A
:10046000DBF800405D464E689C43F60300D51C4314
:100470002C60DEF8004075464E689C43B60300D5FC
:100480001C432C600B4D08352C684E689C43F602CB
:1004900000D51C432C60074D0C352C684E689C43DE
:1004A000B60200D51C432C60521C102AFFF444AF46
:1004B000BDE8F88F003C0140443802400030014064
:1004C000000002400004024000080240000C02400C
:1004D000001002400014024000180240001C0240BC
:1004E000002002400024024042694A4042617047B5
:1004F0000AB1816170470904FBE700000148806888
:10050000704700000400002002488168027811440E
:1005100081607047040000200B4810B5016841F469
:1005200000710160016841F480610160016841F47B
:1005300080710160032000F09FF8002000F006F8B1
:1005400000F024F8002010BD003C024070B50D4DB5
:1005500004464FF47A712878B1FBF0F00A49096833
:10056000B1FBF0F000F023FB48B9102C07D20022B9
:100570002146501E00F060F800206C6070BD012024
:1005800070BD00000400002010000020234808B5C2
:10059000016841F480410160006800F480400090EF
:1005A0001E48001F016841F080510160006800F0A2
:1005B00080500090032000F05FF8002211466FF099
:1005C0000B0000F039F8002211466FF00A0000F02D
:1005D00033F8002211466FF0090000F02DF80022D8
:1005E0001146501F00F028F800221146101F00F09D
:1005F00023F800221146901E00F01EF8002211463A
:10060000501E00F019F800221146052000F014F8E1
:10061000BDE80840052000F003B80000443802405F
:1006200000F01F02012191404009800000F1E0200C
:10063000C0F8001170470000F0B40E4B1B680C4668
:10064000C3F30223C3F10705042D00D90425191DA6
:10065000072901D2002300E0DB1E012606FA05F17E
:10066000491E214099409E40761E16403143F0BC01
:1006700000F072BD0CED00E0064900F007020868CA
:100680004FF6FF03184040EA0220034A1043086077
:10069000704700000CED00E00000FA052DE9F0477E
:1006A0000E46050065D0DFF81481D8F80000F7B2D7
:1006B00000F00F00B04207D288F80070D8F80000B0
:1006C00000F00F00B04254D128683D4C810712D58C
:1006D000400703D5206840F4E050206028780007E8
:1006E00003D5206840F4604020602068A96820F0AD
:1006F000F000084320602878C0072DD03049686892
:100700000839012812D0022813D0032811D0096813
:10071000890700292DDA216821F0030101432160B6
:10072000FFF7ECFE814641F2883A0EE00968890342
:10073000EFE709688901ECE7FFF7E0FEA0EB0901AC
:10074000514502D90320BDE8F0872068696800F0B0
:100750000C00B0EB810FEFD1D8F80010404601F04B
:100760000F01B14207D90770006800F00F00B042D6
:1007700001D00120E7E72878400705D52068E9681F
:1007800020F4E050084320602878000706D5206850
:10079000296920F4604040EAC100206000F03CF884
:1007A0002168084AC1F30311515CC840064908603A
:1007B0000020FFF7CBFE0020C5E70000003C024010
:1007C00008380240A81900081000002001480068FD
:1007D00070470000100000200448054900680968BF
:1007E000044AC1F38221515CC840704710000020C8
:1007F00008380240B819000804480549006809682B
:10080000044AC1F34231515CC840704710000020D7
:1008100008380240B8190008154810B5006810F0F3
:100820000C02144813D04110042A0FD0082A0ED10C
:100830000F4C241F2268236802F03F025B0207D599
:100840002068C0F38810A0FB010106E0084610BD37
:100850002168C1F38811A1FB00010023FFF7C2FC4E
:100860002168C1F30141491C4900B0FBF1F010BD02
:10087000083802400024F4002DE9F84F050076D036
:100880002878DFF8F8B2BE4CC00749D0DBF800107A
:100890005846C1F38101012908D00068C0F38100E6
:1008A00002280AD1201D0068400206D52068800376
:1008B00036D568680028E2D032E06868B0F5803F3D
:1008C00010D0B0F5A02F206810D020F48030206028
:1008D000206820F4802020606868A0B1FFF70EFE39
:1008E00006460CE0206840F48030F4E740F48020B5
:1008F0002060F7E7FFF702FE801B642873D82068AA
:100900008003F7D50CE0FFF7F9FD064605E000BFD0
:10091000FFF7F4FD801B6428F0D820688003F7D42B
:100920002878DFF8608280074FF000093ED5DBF8B9
:100930000010584611F00C0F09D00068C0F3810078
:1009400002280BD18D48001F0068400206D42068A1
:10095000800715D5E868012809D111E0E868B8B129
:100960000120C8F80000FFF7C9FD064605E002E1D6
:10097000FFF7C4FD801B0228C0D820688007F7D588
:100980002068296920F0F80040EAC10020600DE0ED
:10099000C8F80090FFF7B2FD064604E0FFF7AEFD91
:1009A000801B02281FD820688007F7D4287800070A
:1009B00022D5724E744869696C3671B101210160AB
:1009C000FFF79CFD074604E0FFF798FDC01B0228D7
:1009D00009D830688007F7D50EE0C0F80090FFF71F
:1009E0008DFD074605E083E0FFF788FDC01B022868
:1009F0007ED830688007F7D42878400768D5DFF8BC
:100A00007CA100270AF1380ADAF80000C0000BD4F4
:100A1000DAF8001041F08051CAF80010DAF800004E
:100A2000012700F080500090584E3068C00510D467
:100A3000306840F480703060FFF760FD009005E0A2
:100A4000FFF75CFD0099401A022851D83068C005B4
:100A5000F6D54A4EA868683601280FD005283068B8
:100A600010D020F001003060306820F004003060C9
:100A7000A868B8B1FFF742FD00900FE0306840F081
:100A80000100F4E740F004003060F7E7FFF736FDBF
:100A90000099411A41F28830814264D83068800759
:100AA000F4D50EE0FFF72AFD009007E0FFF726FDE2
:100AB0000099411A41F28830814254D83068800749
:100AC000F4D42FB1DAF8001021F08051CAF80010E8
:100AD000A869C0B3DBF80010C1F3810102294AD034
:100AE0000228484607D0C8F86000FFF707FD00E07D
:100AF00039E005463AE04746C8F86000FFF7FEFCDB
:100B0000064604E0FFF7FAFC801B02282BD8206879
:100B10008001F7D4D5E907010843A96A1C4A4908AE
:100B200002EB01416A6A41EA8211084395F82C10F0
:100B300040EA01611148001F016001203866FFF79B
:100B4000DDFC054605E014E0FFF7D8FC401B022859
:100B500009D820688001F7D50BE000BFFFF7CEFC75
:100B6000401B022802D90320BDE8F88F20688001CD
:100B7000F4D40020F8E70120F6E70000083802402E
:100B80000038024000004742800E4742007000409B
:100B90000000FFFF4FF0E0210428086903D020F097
:100BA00004000861704740F00400FAE7704710B590
:100BB000401EB0F1807F01D3012010BD4FF0E02432
:100BC00060610F21601700F0C7FA0020A0610720C4
:100BD0002061002010BD10B5FFF7E8FF10BD704781
:100BE00070B5026804461068D168536910F00F0FA1
:100BF00050D003F0010501F4907635435DD0C20773
:100C000005D0CA0503D5E26B42F00102E263420758
:100C100005D5DA0703D0E26B42F00202E2638207F5
:100C200005D5DA0703D0E26B42F00402E263020763
:100C300005D5DA0703D0E26B42F00802E263E26B0B
:100C4000002A33D0800604D5880602D5204600F05D
:100C50002FFB20684069E16BC0F38010090700D4C6
:100C600028B3204600F016FB2068416949061AD5D2
:100C7000416921F040014161606BA0B11B490165F0
:100C8000606BFFF727FB002810D0606B016DBDE89B
:100C900070400847830610D58B060ED52046BDE868
:100CA000704000F005BB2046FFF799FF70BD20465D
:100CB000FFF795FF0020E06370BD030606D50B0625
:100CC00004D52046BDE8704000F08EBC4006F3D548
:100CD0004806F1D5D168204621F04001D16020219D
:100CE00084F8391000F0E1F970BD000085120008A9
:100CF00070B5040004D094F83900002510B106E066
:100D0000012070BD84F83850204600F023F82420DC
:100D100084F839002068C16821F40051C160204680
:100D200000F00CFB2068016921F49041016120680A
:100D3000416921F02A0141612068C16841F40051F4
:100D4000C160E563202084F8390084F83A0000206F
:100D500070BD00002DE9F041254B026825490224B1
:100D6000032507262448012786B09A4221D10A6824
:100D700042F400320A60096802AA01F400310591C8
:100D80000821CDE9001482E8700069468046FFF72B
:100D9000C5FA70208DE89100CDE9035669464046BA
:100DA000FFF7BCFA002211462620FFF745FC26205B
:100DB00019E0124B9A4218D10A6842F480220A6064
:100DC000096801F4802105914FF440718DE892008B
:100DD000CDE903566946FFF7A1FA00221146272004
:100DE000FFF72AFC2720FFF71BFC06B0BDE8F081C7
:100DF0000044004040380240000C024000480040DF
:100E00002DE9F843044690F83A00994616460D46F7
:100E100020284FD195B18EB194F83800012849D0DF
:100E2000012084F838000027E763222084F83A0084
:100E3000FFF764FBA6858046E68531E00120BDE82A
:100E4000F883E08D401EE085A0684346B0F5805FE2
:100E50004FF000024FF020012046CDF8009004D062
:100E600000F0F3FB98B10320E9E700F0EEFB002867
:100E7000F9D1206900282068406803D0C1B225F864
:100E8000011B0DE0C0F3080125F8021B08E02069F2
:100E900000282068406801D000F07F0005F8010BB1
:100EA000E08D0028CDD1202084F83A0084F83870F5
:100EB0000020C4E70220C2E790F83A30202B1DD171
:100EC000D1B1CAB190F83830012B17D08162828538
:100ED000C2850021C163222280F83A2080F83810B0
:100EE00001684A6942F001024A610068C16841F440
:100EF0009071C16000207047012070470220704748
:100F0000FEB506462F4900680C142F4D884221D1AA
:100F1000012221462846FFF7EBFA2C480278A2F17D
:100F2000300009280AD82AA1684600F0CDFB2748DE
:100F300064230A226946403800F05AF82349012206
:100F4000A1F18000FFF7B8FF24490122A1F50D703F
:100F5000FFF7B2FF22493068884223D11F48027848
:100F6000303A062A12D2DFE802F003052527292BA2
:100F7000002200E001221BA1684600F0A5FB1348F7
:100F8000642309226946803800F032F813490122AF
:100F9000A1F50D70FFF790FF0C490122A1F180002F
:100FA000FFF78AFF03B021462846BDE8F040002243
:100FB000FFF79EBA0222DEE70322DCE70422DAE72B
:100FC0000522D8E7004400400004024094000020BD
:100FD000424C453A49276D25630D0A0088020020DE
:100FE0000048004050433A49276D25640D0A00002F
:100FF0002DE9F843044690F839001F4616460D4681
:10100000202850D1A5B19EB194F8380001284AD0CB
:10101000012084F838004FF00008C4F83C802120FB
:1010200084F83900FFF76AFAA6848146E68426E050
:101030000120BDE8F883E08C401EE084A0684B46A8
:10104000B0F5805F4FF000024FF08001204600971E
:1010500003D000F0FAFAE8B90DE000F0F6FAC8B9EA
:1010600028882168C0F308004860206908B16D1C19
:1010700005E0AD1C03E0216815F8010B4860E08C29
:101080000028D8D14B46002240212046009700F08E
:10109000DCFA08B10320CCE7202084F8390084F87A
:1010A00038800020C5E70220C3E77047F0B5264826
:1010B00087B00024016841F080010160016801F0FF
:1010C00080010591016841F040010160016801F073
:1010D00040010591016841F002010160016801F0E1
:1010E00002010591016841F0080101600068174E96
:1010F00000F008004FF48145059000222946304653
:10110000FFF7F6F9124F002280213846FFF7F0F979
:101110000320CDE9000469460E480294FFF7FEF86B
:1011200000950125CDE90154694630460394FFF747
:10113000F5F880200090CDE90154694638460394C3
:10114000FFF7ECF807B0F0BD303802400004024071
:10115000000C0240001802400907090E002806DAB8
:1011600000F00F0000F1E02080F8141D704700F13E
:10117000E02080F80014704770477047704710B542
:10118000FFF7C2F9BDE81040FFF725BD30B526488E
:1011900093B00024016841F080510160006800F0C4
:1011A000805011902148016821F4404141F4804170
:1011B00001600068022500F4404011900120039076
:1011C00010200490009506950820CDE90740A8203E
:1011D000099004200A9007200B906846FFF74CFB0B
:1011E00000B1FEE70F20CDE90C054FF4A050CDE98A
:1011F0000E404FF48050109002210CA8FFF74EFAD9
:1012000000B1FEE7FFF7E2FA4FF47A71B0FBF1F0BC
:10121000FFF7CDFC0420FFF7BDFC00221146501E55
:10122000FFF70AFA13B030BD4038024000700040AA
:101230001048016841F4700101600F48016841F0F5
:10124000010101600C4A00210832116002680B4B59
:101250001A400260031D0A4A1A60026822F48022C2
:10126000026005480C300160024958068039086068
:101270007047000088ED00E000380240FFFFF6FEF6
:101280001030002410B5806B0021C185C184FFF7A8
:10129000A6FC10BD0168CA6822F49072CA60016899
:1012A0004A6922F001024A61202180F83A10704711
:1012B00010B590F83A10222901D0022010BD8168A3
:1012C000B1F5805F11D00169002901681FD049681C
:1012D00001F07F03816A4A1C82620B70C18D491E36
:1012E0000904090CC18518D026E00269816A002A28
:1012F0000268526805D0D2B20A80816A491C8162B4
:10130000ECE7C2F308020A80816A891CF7E74A68A1
:10131000816A4B1C83620A70E0E70168CA6822F4A4
:101320009072CA6001684A6922F001024A61202174
:1013300080F83A10FFF7E4FD002010BD2DE9F041E0
:1013400004460068016921F44052E16811430161DB
:101350002168C86849F20C6290432369A268E56974
:101360001A4363692B431A430243CA6021684869E0
:1013700020F44072A06910434861E1696425B1F529
:10138000004F9748974A21684FF032083FD091426A
:1013900001D081427CD1FFF72FFA00EBC00101EBB5
:1013A000001061688900B0FBF1F6FFF725FA00EB49
:1013B000C00101EB001061688900B0FBF1F0B0FBE7
:1013C000F5F06FF01801484306EB800108EB0110BF
:1013D000B0FBF5F000F0F006FFF70EFA00EBC001ED
:1013E00001EB001061688900B0FBF1F0B0FBF5F093
:1013F00006EB0016FFF700FA00EBC00101EB00104E
:1014000061688900B0FBF1F7FFF7F6F9D2E091428D
:1014100001D081423DD1FFF7EFF900EBC00101EBB4
:10142000001061684900B0FBF1F0B0FBF5F0060177
:10143000FFF7E2F900EBC00101EB00106168490021
:10144000B0FBF1F7FFF7D8F900EBC00101EB00109A
:1014500061684900B0FBF1F0B0FBF5F06FF01801E6
:10146000484307EB800108EBC100B0FBF5F000F04A
:10147000F80006EB4006FFF7BFF900EBC00101EBF7
:10148000001061684900B0FBF1F7FFF7B5F93CE0E7
:1014900055E0FFF7A1F900EBC00101EB0010616816
:1014A0004900B0FBF1F0B0FBF5F00601FFF794F94D
:1014B00000EBC00101EB001061684900B0FBF1F7DF
:1014C000FFF78AF900EBC00101EB001061684900E9
:1014D000B0FBF1F0B0FBF5F06FF01801484307EBFB
:1014E000800108EBC100B0FBF5F000F0F80006EB5E
:1014F0004006FFF771F900EBC00101EB00106168D5
:101500004900B0FBF1F7FFF767F900EBC00101EB11
:10151000001061684900B0FBF1F0B0FBF5F06FF02E
:101520001801484307EB800108EBC100B0FBF5F060
:1015300000F00700216830448860BDE8F081FFF7C3
:101540004BF900EBC00101EB001061688900B0FBB2
:10155000F1F6FFF741F900EBC00101EB0010616803
:101560008900B0FBF1F0B0FBF5F06FF018014843D3
:1015700006EB800108EB0110B0FBF5F000F0F0067F
:10158000FFF72AF900EBC00101EB00106168890048
:10159000B0FBF1F0B0FBF5F006EB0016FFF71CF91D
:1015A00000EBC00101EB001061688900B0FBF1F7AE
:1015B000FFF712F900EBC00101EB00106168890030
:1015C000B0FBF1F0B0FBF5F06FF01801484307EB0A
:1015D000800108EB0110B0FBF5F000F00F00A9E767
:1015E000001401400010014090F83910212901D069
:1015F000022070478168B1F5805F016A0BD04A1CF8
:101600000262026809785160C18C491E0904090C04
:10161000C1840ED017E009880268C1F30801516047
:1016200001690029016A02D0491C0162ECE7891CAA
:10163000FBE70168CA6822F08002CA600068C168DE
:1016400041F04001C160002070472DE9F04198460B
:1016500017460E460446069D1DE0681C1BD02DB1A2
:10166000FEF74CFFA0EB0800A84214D92068C1681F
:1016700021F4D071C1602068416921F0010141610C
:10168000202084F8390084F83A00002084F83800DB
:101690000320BDE8F0812068006836EA000004D02D
:1016A0000020B842D9D00020F3E70120F9E700007C
:1016B0000148FFF795BA0000140000200148FFF729
:1016C0008FBA0000540000200FB4084B10B504A9D5
:1016D00002AA039800F01CF8044602A9002000F0BA
:1016E000F3F8204610BC5DF814FB0000C918000890
:1016F00002E008C8121F08C1002AFAD170477047DB
:10170000002001E001C1121F002AFBD17047000038
:101710002DE9FF4F8BB09A460F460546002606E09E
:1017200025280BD052460D9990476D1C761C2878C1
:101730000028F5D10FB03046BDE8F08F0024A04658
:101740000122604900E0044315F8013F203B02FA02
:1017500003F00842F7D128782E2817D115F8010F89
:1017600044F004042A280ED06FF02F022878A0F14C
:10177000300109290AD808EB880102EB410100EB8E
:1017800001086D1CF2E757F8048B6D1C2878692856
:101790003ED006DC0028CDD063280BD0642804D1CD
:1017A00036E0732810D075284BD052460D999047DB
:1017B000761C85E017F8040B8DF8000000208DF8EA
:1017C0000100E946012003E057F8049B4FF0FF3089
:1017D00061074FF0000401D40AE0641C44450DDAAF
:1017E0008442FADB19F804100029F6D106E0641CE3
:1017F0008442FCDB19F804100029F8D1264404E0E7
:1018000019F8010B52460D999047641EF8D257E023
:1018100001CF4FF00A0B002802DA40422D2102E0EE
:10182000210504D52B218DF82410012103E0E107C7
:1018300005D02021F7E70DF1200908910CE00021E7
:10184000F9E701CF4FF00A0BF9E75946FEF7FBFC29
:1018500001F1300209F8012D0028F6D1ADEB0900A5
:1018600000F1200B600701D44FF00108D84502DDDC
:10187000A8EB0B0000E000208046002406E009A849
:101880005246005D0D999047641C761C089884426E
:10189000F5DB04E0302052460D999047761CB8F1F4
:1018A0000001A8F10108F5DC05E019F8010B52462A
:1018B0000D999047761CBBF10001ABF1010BF4DCF4
:1018C0006D1C34E7092801000A68531C0B60107076
:1018D00070470000FEF720FEFFF758FCFFF7E6FB1D
:1018E0002C482B494FF4E13500240160C0E9015434
:1018F0000C26C460C0E904468461C461FFF7F8F9AE
:1019000000B1FEE72348244940380160C0E9015492
:10191000C460C0E904464FF44071C0E90614FFF703
:10192000E7F900B1FEE7002280211C48FEF7E0FD48
:101930001B4C00224FF480412046FEF7D9FD642065
:10194000FEF7DAFC134947F2305340310E22A1F181
:101950008000FFF755FA0F4964230E2240310D48ED
:10196000FFF746FB0B4801220E494038FFF7A4FA67
:101970000C490122491C0748FFF79EFA4FF4FA75FB
:1019800080212046FEF7B0FD2846FEF7B5FCF7E7BC
:10199000004800405400002000440040000C024079
:1019A00000040240000000200000000000000000D1
:1019B00001020304060708090000000001020304F5
:1019C000E01900080000002014000000F0160008D4
:1019D000F4190008140000206C080000001700082B
:1019E00000000000010000001000000000000000E6
:0419F0000024F400DB
:04000005080001AD41
:00000001FF
